:020000040000fa
:080000000004040000000000f0
:020000040000fa
:1000080002180000061800000a1800000e18000068
:1000180012180000161800001a1800001e18000018
:1000280022180000261800002a1800002e180000c8
:1000380032180000361800003a1800003e18000078
:1000480042180000461800004a1800004e18000028
:1000580052180000561800005a1800005e180000d8
:1000680062180000661800006a1800006e18000088
:1000780072180000761800007a1800007e18000038
:1000880082180000861800008a1800008e180000e8
:1000980092180000961800009a1800009e18000098
:1000a800a2180000a6180000aa180000ae18000048
:1000b800b2180000b6180000ba180000be180000f8
:1000c800c2180000c6180000ca180000ce180000a8
:1000d800d2180000d6180000da180000de18000058
:1000e800e2180000e6180000ea180000ee18000008
:1000f800f2180000f6180000fa180000fe180000b8
:1001080002190000061900000a1900000e19000063
:1001180012190000161900001a1900001e19000013
:1001280022190000261900002a1900002e190000c3
:1001380032190000361900003a1900003e19000073
:1001480042190000461900004a1900004e19000023
:1001580052190000561900005a1900005e190000d3
:1001680062190000661900006a1900006e19000083
:1001780072190000761900007a1900007e19000033
:1001880082190000861900008a1900008e190000e3
:1001980092190000961900009a1900009e19000093
:1001a800a2190000a6190000aa190000ae19000043
:1001b800b2190000b6190000ba190000be190000f3
:1001c800c2190000c6190000ca190000ce190000a3
:1001d800d2190000d6190000da190000de19000053
:1001e800e2190000e6190000ea190000ee19000003
:0801f800f2190000f6190000e5
:020000040000fa
:1002080002180000061800000a1800000e18000066
:1002180012180000161800001a1800001e18000016
:1002280022180000261800002a1800002e180000c6
:1002380032180000361800003a1800003e18000076
:1002480042180000461800004a1800004e18000026
:1002580052180000561800005a1800005e180000d6
:1002680062180000661800006a1800006e18000086
:1002780072180000761800007a1800007e18000036
:1002880082180000861800008a1800008e180000e6
:1002980092180000961800009a1800009e18000096
:1002a800a2180000a6180000aa180000ae18000046
:1002b800b2180000b6180000ba180000be180000f6
:1002c800c2180000c6180000ca180000ce180000a6
:1002d800d2180000d6180000da180000de18000056
:1002e800e2180000e6180000ea180000ee18000006
:1002f800f2180000f6180000fa180000fe180000b6
:1003080002190000061900000a1900000e19000061
:1003180012190000161900001a1900001e19000011
:1003280022190000261900002a1900002e190000c1
:1003380032190000361900003a1900003e19000071
:1003480042190000461900004a1900004e19000021
:1003580052190000561900005a1900005e190000d1
:1003680062190000661900006a1900006e19000081
:1003780072190000761900007a1900007e19000031
:1003880082190000861900008a1900008e190000e1
:1003980092190000961900009a1900009e19000091
:1003a800a2190000a6190000aa190000ae19000041
:1003b800b2190000b6190000ba190000be190000f1
:1003c800c2190000c6190000ca190000ce190000a1
:1003d800d2190000d6190000da190000de19000051
:1003e800e2190000e6190000ea190000ee19000001
:0803f800f2190000f6190000e3
:020000040000fa
:100800002f9220000e7f24000e01880000000000bf
:10081000000020000000e000020032000001200083
:100820002002880014000700590007000000e000c3
:1008300003003a0000a5200001002000020037005c
:100840000000200001002000810f70000100320034
:1008500014000700000020000000e0000200320049
:100860000000020000000000120902000000000069
:100870000040da000000fe004440a9000000200013
:100880000000e0000300320000002000a00188000a
:100890004440a800000006008a1f78008b1f7800e3
:1008a0000000060091018800800478000000eb0041
:1008b0001a003700e284440032a0b4009905ba005f
:1008c000e284440032a0b4009906ba00e2844400f5
:1008d00032a0b4000006eb00476fde00fd07b20057
:1008e000636ce10003003a00ebff07000000eb003f
:1008f0000a003700606ce10004003a00005deb0084
:100900008b05e900fdff3e00040037006168e1004f
:10091000010032000086eb000b00070019c7ba0087
:100920001905ba000e04e00003003a000a00e000d6
:10093000e0ff3a0000000600fe07b2009e018800ba
:100940008a047800f5ff3700395dba008b05e900ad
:100950000c003200295dba008b05e9000800320066
:100960000c00e00003003a00e284440032a0b4002e
:10097000f5ff370019ddba008b05e900faff3a00f0
:100980008904e800e184440032a0b40000000600bd
:04099000000005005e
:020000040000fa
:10099400022020009311800083006100fdff3a00d3
:1009a4000080fb00a011880000000600889fbe00a4
:1009b4008a9fbe008c9fbe008e1f780000067800c0
:1009c4003342a80050c5b300f1ff070050c5b3007f
:1009d400efff07000c00e0001c003200bb81200088
:1009e4000045eb008004eb005dc5b3005ec0b300be
:1009f4000060fe005b447800084545008d4f5400bc
:100a040004003200e44f540002003200e54f540069
:100a140002003a000e407800ddff0700084078002d
:100a2400dbff07008904e800890f5600f0ff3e0051
:100a34000a45ea0050c5b300804f55000600320055
:100a4400e44f550002003a00030037000045eb0074
:100a5400e54f550002003a0050c0b300ccff070038
:100a64000a407800caff070040c0b300c8ff07006f
:100a7400011020009211800002806000fdff32000e
:100a84004f0778004f06be004f05be004f04be005e
:100a940000000600889fbe00800478000810200033
:100aa4000060fe00901180006e00600002003200c1
:100ab400b01180003222a9003202ab0004003200df
:100ac400b0118000804c78004f04be000000060086
:100ad4002104800001006400f1ff320040408000e6
:100ae4004b020700eeff37000200fa00889fbe00a9
:100af4008a9fbe008c1f780058c5b300cc812000ab
:100b04006c805700e3ff07004ff09700884f5000b8
:100b1400fbff3a0011e1a9006c805700ddff0700dc
:100b24008004eb000045eb006b1020004ff09700b1
:100b3400884f5000f2ff3a00020037008004eb00b7
:100b44000045eb006c805700d2ff07004ff0970080
:100b5400e54f500008003200884f5000f7ff320084
:100b6400e44f500006003a00000000000a04e000d0
:100b7400e3ff3a00090037006c805700c5ff070007
:100b84004ff097000045450000f67c008904e8001a
:100b94008b8f5400daff3e00eaff37004f067800df
:100ba4004f05be004f04be000080fa00000006009e
:100bb400889fbe008a9fbe008c1f78000204be007e
:100bc4004206dd00110032001a8220008005eb008d
:100bd400880078000900780007020700004d7800bb
:100be4004801de0012459800214598004808de00bf
:100bf40030459800e485450062044400e0844c00dc
:100c0400640545008c8f5500f1ff39004f067800cc
:100c14004f05be004f04be0000000600e8874700f1
:100c2400889fbe008a9fbe008c9fbe008e1f7800e6
:100c34000204be00820078004807dd00750032001f
:100c44001a8220008005eb009100b300e58050007b
:100c540080805000e1b79f000060fe001a80fb0016
:100c640002f02f008c006100810070009a41900016
:100c7400c819dd00f00f200080806000018671003b
:100c8400aa4090008180fb000d0161008280700009
:100c94003a4190004811dd00008060008006710038
:100ca400e4854500f8b79f0089bf9f00e07f2500d9
:100cb40011002000800f5400818f5c0004003a0072
:100cc400f1ff27000c8660008006eb00200037004f
:100cd4007fb097008fb89700e00f5000e08f580066
:100ce40008003a008006eb004c4088005d40880014
:100cf4000c0020004d0020001000200080408800df
:100d04001c0037007fb097008fb89700e20f5000a7
:100d1400e08f58000e003a000c86fb008006eb00c2
:100d2400c066dd000c00200040408000514080007f
:100d34000000460081804e004040880051408800f9
:100d44006066b8001000200080408800140037005e
:100d54007fb097008fb8970002802100820f500067
:100d6400e08f580003003a006c4088007d40880002
:100d7400060037007fb097008fb89700f2bf2000bd
:100d8400820f5000e08f5800050036008c01780077
:100d94000d017800880078000900780092010700ae
:100da400400020001228b400c0ff2f001428b40013
:100db4000b04e00012003a00efb097000b804000f3
:100dc4000040880060b02a000b005000b04088004a
:100dd4007fb097008fb89700f2bf2000820f5000b9
:100de400e08f58000600360010002400640107005c
:100df400500020001228b400a0ff2f001428b400d3
:100e040062044400e0844c00640545008e8f550064
:100e140091ff39004f0778004f06be004f05be0012
:100e24004f04be008f00b10000000600881f780048
:100e340028408000634080007240800001802100cf
:100e44000000eb00680107009800b300660454003a
:100e540008408800c0b02a00b04088003000240058
:100e640047010700500020001228b400a0ff2f0003
:100e74001428b4004f04780000000600889fbe00c8
:100e840030a2a80008022000091020000c0037003e
:100e94000060fe0021048000018064000200320032
:100ea400404080005a0107003222ab0001003200aa
:100eb4003222a9003202ab0001003200b0118000de
:100ec4008111800001006400f1ff3a004f04be006c
:100ed40000000600123a80000260a10060042000b5
:100ee400710520002374200080497800814978002e
:100ef4008249780002fc2f00333580000301610031
:100f0400e200b30032358800f30f2c00e236800093
:100f1400828161000250200003017100e2368800e2
:100f2400123a80000260a0002374200080497800f7
:100f3400814978008249780000000600889fbe003d
:100f44008a9fbe008c1f78000004be000b40800006
:100f5400bc40800000002000410020008001780097
:100f64000101780088007800090078001e0107005c
:100f7400500020001228b400a0ff2f001428b40051
:100f840030002400fe0007006000b8000885e80077
:100f940080017800010178008a0078000900780057
:100fa400110107000b408800bc408800500020005d
:100fb4001228b400a0ff2f001428b400300024002d
:100fc400ef0007004f0678004f05be004f04be0037
:100fd40000000600e4874700889fbe008a9fbe0089
:100fe4008c9fbe008e1f7800800578000204be002e
:100ff400020078000b00e0002b0032000005eb003b
:101004009000b3000b00400080bf9f000a05e80079
:101014001228ec001428ed00f07f210001002000cc
:10102400800f5400818f5c00190036008fb8970040
:101034000a8740006700470000408800e1af2a00ab
:101044000a805000b0408800220424008800780000
:1010540009007800f000070090ff2f001228b40068
:10106400d0ff2f001428b400f03f2000800f54005c
:10107400e08f5c0006003e000e408800b1af2a00fd
:101084000a805000b04088006000b800abff070041
:10109400004020000100200008044000898448002a
:1010a4008a8f5500d9ff3e004f0778004f06be00d7
:1010b4004f05be004f04be004f00b1000000060003
:1010c400889fbe00c0812000104478000000e80022
:1010d400904478000904e00003003a0031e2a900da
:1010e40040408000ca000700e081200010417800e1
:1010f40041802000824878000000e8001041780018
:1011040051802000824878000000e80010417800f7
:1011140061802000824878000768ef0090408000da
:101124000408b70090408800a04080000000400000
:10113400a0408800e24f54001d00320005003e002c
:101144000804e00008003200e14f540032003a0085
:101154000e003700e34f54001e003200e84f5400e5
:101164002d003a002700370021c0b300e0812000a1
:101174000148780011c0b3000000e800014878007d
:101184004000200010408800230037000984fb0041
:1011940022408000334080000800780084fe07006d
:1011a4004244dd0065044400184088001a003700fa
:1011b4000980fb001228b50014a8ec00224080002e
:1011c4003340800095fe0700100020001040880086
:1011d400110037008984fb00090078001228b4004c
:1011e400d0ff2f001428b400224080003340800038
:1011f4000900780077ff07001000200010408800e5
:10120400050037001228ed00800020001428b400e7
:1012140010002000104088004f04be0000000600ab
:10122400889fbe008a9fbe004427ef00f0ff28007d
:101234004427b6004567a9004107a90081e0a90039
:1012440083e0a90000802100204088000628ef00e8
:101254002140800030408000670007000005be0088
:1012640008a0210009002000284088003940880097
:1012740021408000304080005f0007004840880023
:10128400594088001028ef000a04e00008003a00e2
:1012940030ed2f004007b6000300320000a021000b
:1012a4005b00070002003700fa0f20000b0020004b
:1012b40011e1a9001061a8008500a9009500a9000a
:1012c400f00f2000010020000a0160008001eb0003
:1012d400800f5100818f59000c0032000a85fb00f9
:1012e4008005eb00400f200000d0b900024022002e
:1012f4000255b8008b0540007b0888006a08880006
:101304000621ef000a21ef0011e1a800f1fe070019
:101314002de3a8002dc3a80031e2a800200220007c
:10132400c01188003062a800e03db0009011880030
:101334000084eb005a55250098408800aa40880094
:10134400e9fd0700a00020001228b400a00220003c
:101354001428b4005aff07001040800093fd0700d2
:10136400f5ff370002202000131180008300610084
:10137400fdff3a000000fb00201188000000060079
:10138400003b8800b0ff2f001228b400600020004a
:101394001428b400904080000008e3000e003a00d6
:1013a400a04080001608e3000b003a00500520001e
:1013b400303b8800a00a2000303b880061e7a80089
:1013c400000000000000000001002800023b800033
:1013d40002806000fdff3a000028ef00a0aa2a0066
:1013e400b04088000000060032e0b7008308bb006c
:1013f4008288bb00000006000101780032e0b700db
:101404009201ba00030078009280ba00000006003e
:1014140000400100000006002303200093417800ef
:1014240032e0b700023b88008108bb007000200056
:101434001228b400300020001428b400904080002a
:101444000008e3000e003a00a04080001608e30004
:101454000b003a0050052000303b8800a00a200011
:10146400303b880061e7a800000000000000000095
:1014740001002800023b800002806000fdff3a006a
:101484000028ef00a0aa2a00b0408800834078001a
:0c14940020032000014878000000060042
:020000040000fa
:1014a0001808000004000000000000001c080000f4
:1014b0000601000000000000120800000600000005
:1014c00002000000ffff550055aaaa000008000016
:0c14d000120000000000000000000000fe
:020000040000fa
:0814dc000040da000000fe00f0
:020000040000fa
:020000040002f8
:04aff400ffff00005b
:020000040000fa
:020000040002f8
:04aff800cff1000095
:020000040000fa
:020000040002f8
:04affc006f3f0000a3
:00000001FF
