:020000040000fa
:08000000001a040000000000da
:020000040000fa
:103400008ff22100007f24000001880000000000ee
:103410000c00070040772500010020001100070084
:10342000000020000000e000020032000000020066
:10343000000000002c3b0200000000000040da0009
:103440000000fe004440a900001020000000e00041
:103450000300320000002000a00188004440a800c2
:103460000000060091018800800078000000eb0059
:1034700015003700e280400032a0b4009101ba008c
:10348000e280400032a0b4009102ba00e280400025
:1034900032a0b4000002eb00472bde00f507b200bb
:1034a000602ce10004003a000059eb008301e900c0
:1034b000fdff3e00040037006128e10001003200fa
:1034c0000082eb00040007001101ba000200e000d6
:1034d000e8ff3a00000006003159ba008301e90014
:1034e0000c0032002159ba008301e90008003200c3
:1034f0000400e00003003a00e280400032a0b40083
:10350000f5ff370011d9ba008301e900faff3a004c
:103510008100e800e180400032a0b4000000060015
:103520006022b800060220000000d0008180d20096
:103530000482d2008582d2000000a0000202520064
:1035400083825a00030031000202420083824a0053
:103550000000a1000603e900f3ff3a0000000600a6
:020000040000fa
:10300000050000002c58040000000000423f0400ae
:1030100000000000f23e040000000000103f040029
:10302000000000002e3f0400000000002c580400a7
:10303000000000002c580400000000002c58040080
:10304000000000002c580400000000002c58040070
:10305000000000002c58040000000000164004008e
:10306000000000002c580400000000002c58040050
:10307000000000002c5804000000000088400400fc
:103080000000000088410400000000002c580400eb
:10309000000000002c580400000000006e480400ee
:1030a000000000003a48040000000000a4500400a2
:1030b000000000002c580400000000002c58040000
:1030c000000000002c580400000000002c580400f0
:1030d000000000002c58040000000000d65004003e
:1030e000000000002c580400000000002c580400d0
:1030f000000000002c580400000000002c580400c0
:10310000000000002c580400000000002c580400af
:10311000000000002c58040000000000424204009f
:10312000000000002c580400000000002c5804008f
:10313000000000002c580400000000002c5804007f
:10314000000000002c580400000000002c5804006f
:10315000000000002c580400000000002c5804005f
:10316000000000002c580400000000002c5804004f
:10317000000000002c580400000000002c5804003f
:10318000000000002c580400000000002c5804002f
:10319000000000002c580400000000002c5804001f
:1031a000000000002c580400000000002c5804000f
:1031b000000000002c580400000000002c580400ff
:1031c000000000002c580400000000002c580400ef
:1031d000000000002c580400000000002c580400df
:1031e000000000002c580400000000002c580400cf
:1031f000000000002c580400000000002c580400bf
:10320000000000002c580400000000002c580400ae
:10321000000000002c580400000000002c5804009e
:10322000000000002c580400000000002c5804008e
:10323000000000002c580400000000002c5804007e
:10324000000000002c580400000000002c5804006e
:10325000000000002c580400000000002c5804005e
:10326000000000002c580400000000002c5804004e
:10327000000000002c580400000000002c5804003e
:10328000000000002c580400000000002c5804002e
:10329000000000002c580400000000002c5804001e
:1032a000000000002c580400000000002c5804000e
:1032b000000000002c580400000000002c580400fe
:1032c000000000002c580400000000002c580400ee
:1032d000000000002c580400000000002c580400de
:1032e000000000002c580400000000002c580400ce
:1032f000000000002c580400000000002c580400be
:10330000000000002c580400000000002c580400ad
:10331000000000002c580400000000002c5804009d
:10332000000000002c580400000000002c5804008d
:10333000000000002c580400000000002c5804007d
:10334000000000002c580400000000002c5804006d
:10335000000000002c580400000000002c5804005d
:10336000000000002c580400000000002c5804004d
:10337000000000002c580400000000002c5804003d
:10338000000000002c580400000000002c5804002d
:10339000000000002c580400000000002c5804001d
:1033a000000000002c580400000000002c5804000d
:1033b000000000002c580400000000002c580400fd
:1033c000000000002c580400000000002c580400ed
:1033d000000000002c580400000000002c580400dd
:1033e000000000002c580400000000002c580400cd
:0433f00000000000d9
:020000040000fa
:020000040002f8
:04aff400ffff00005b
:020000040000fa
:020000040002f8
:04aff8008ff10000d5
:020000040000fa
:020000040002f8
:04affc006f3f0000a3
:020000040000fa
:10356000005e0000bce20000613f0000dd8300005f
:10357000c29c00007e200000a3fd00001f4100004f
:103580009dc30000217f0000fca20000401e00003f
:103590005f010000e3bd00003e60000082dc00002f
:1035a000237d00009fc10000421c0000fea000001f
:1035b000e1bf00005d03000080de00003c6200000f
:1035c000bee00000025c0000df810000633d0000ff
:1035d0007c220000c09e00001d430000a1ff0000ef
:1035e00046180000faa40000277900009bc50000df
:1035f00084da000038660000e5bb000059070000cf
:10360000db85000067390000bae4000006580000be
:1036100019470000a5fb000078260000c49a0000ae
:10362000653b0000d9870000045a0000b8e600009e
:10363000a7f900001b450000c69800007a2400008e
:10364000f8a60000441a000099c70000257b00007e
:103650003a64000086d800005b050000e7b900006e
:103660008cd20000306e0000edb30000510f00005e
:103670004e100000f2ac00002f71000093cd00004e
:10368000114f0000adf30000702e0000cc9200003e
:10369000d38d00006f310000b2ec00000e5000002e
:1036a000aff10000134d0000ce900000722c00001e
:1036b0006d330000d18f00000c520000b0ee00000e
:1036c000326c00008ed00000530d0000efb10000fe
:1036d000f0ae00004c12000091cf00002d730000ee
:1036e000ca94000076280000abf5000017490000de
:1036f00008560000b4ea000069370000d58b0000ce
:1037000057090000ebb50000366800008ad40000bd
:1037100095cb000029770000f4aa000048160000ad
:10372000e9b70000550b000088d60000346a00009d
:103730002b75000097c900004a140000f6a800008d
:10374000742a0000c8960000154b0000a9f700007d
:10375000b6e800000a540000d78900006b3500006d
:020000040000fa
:103760000000fa00e022a900e622a9006760a90093
:103770007360a9005b60a900e002a900e602a9004d
:103780006740a9007340a9005b40a900e822a90096
:10379000ee22a90068a0a90074a0a9005ca0a9005d
:1037a000e802a900ee02a9006880a9007480a900bf
:1037b0005c80a900d822a800de22a9006640a800eb
:1037c0007240a9005a40a900d1c2a800d7c2a900de
:1037d0006000a8006c00a9005400a9000080fa0055
:1037e000000006000000fa00ddff07000040eb00cb
:1037f00090feb7000040eb0091feb7000000eb0028
:1038000090f488006000b800a0f48800b1f488004b
:103810006000b800e0f48800f1f488000000eb00dc
:1038200000f5880010c0b30098feb70010c0b300c8
:103830009afeb7000040eb009bfeb70010c0b3003b
:10384000a3feb70010c0b300a5feb7000040eb0018
:10385000a6feb700e422a900e402a900ec22a90018
:10386000ec02a900dac2bf00624060000004e00080
:1038700003003a0010c1b300a2feb70002003700f7
:1038800000c1b300a2feb700d3c2bf000044b20023
:103890000004e00003003a0010c1b300a4feb7002a
:1038a0000200370000c1b300a4feb7002e070700d6
:1038b0000080fa00000006000a00fa000040eb0059
:1038c000204798000bd9bf000004e000f3003a0045
:1038d0000040eb0090feb70011c1bf0001c8b3006b
:1038e000014060000004e000fbff3a000040eb00f4
:1038f0009bfeb700000021000100200070f288004c
:1039000081f288006002200090f2880010c0b300ad
:1039100054feb700210420009140780000ceb3008f
:1039200000c0700042e0b70054debf0092f2800099
:103930008041780070f2800081f28000ba080700b0
:1039400042c0bf007f40600042e0b7000040eb0093
:103950000efab70010c0b3001e19070080d0800017
:1039600010f0880010c0b3001a19070080d0800042
:1039700000f0880010c0b3001619070080d0800046
:1039800020f0880000f080000000e00002003a0013
:103990006089290000f0880001f08000608929001a
:1039a000808f5000020036006089290000f08800f6
:1039b000210420009140780000ceb30000c07000c8
:1039c00042e0b70071f2800080f2800070090700c9
:1039d00054debf0092f280008041780070f28000d7
:1039e00081f28000e508070054debf0092f28000fb
:1039f0008041780070f2800081f280008a08070020
:103a000042c0bf007f40600042e0b70010f080007d
:103a1000c0f2880000f08000b0f2880020f0800042
:103a2000d0f28800c1f38000d0f28000808f500077
:103a300002003600d0f28000c0f38800d1f380008d
:103a4000b0f28000808f500002003100b0f28000a0
:103a5000d0f388000040eb00204798008c0037002e
:103a60002e4090000080fb0000004000610220001a
:103a70008080400060e521000080400090007800d8
:103a8000c0f38000808f5000300031002e40900045
:103a90000004e00015003a002e4090000080fb007a
:103aa00000004000010320008080400060e521000c
:103ab0000080400090007800b0f28000808f5000bd
:103ac0001e0031002e4090000080fb00b2f280000a
:103ad00000004000010320008080400060e52100dc
:103ae0000080400002087800140037002e4090004b
:103af0000080fb00000040000103200080804000a7
:103b000060e521000080400090007800d0f3800044
:103b1000808f5000090031002e4090000080fb0093
:103b2000d2f38000000040000103200080804000ac
:103b300060e5210000804000020878002e409000df
:103b40000040e80020479800510037002e409000c8
:103b50000080fb00c2f380000000400061022000f2
:103b60008080400060e5210000804000020878006d
:103b70002e4090000004e00015003a002e40900016
:103b80000080fb0000004000010320008080400016
:103b900060e521000080400090007800b0f28000d5
:103ba000808f50001e0031002e4090000080fb00ee
:103bb000b2f280000000400001032000808040003d
:103bc00060e5210000804000020878001400370002
:103bd0002e4090000080fb00000040000103200008
:103be0008080400060e52100008040009000780067
:103bf000d0f38000808f5000090031002e409000eb
:103c00000080fb00d2f38000000040000103200090
:103c10008080400060e521000080400002087800bc
:103c20002e4090000040e800204798001500370023
:103c30002e4090000080fb00c2f380000000400096
:103c4000610220008080400060e52100008040008b
:103c5000020878002e4090000080fb000000400029
:103c6000010320008080400060e52100808040004a
:103c700060892900800878002e4090000040e8000c
:103c8000204798002e409000e44f5000e8ff360097
:103c90002e409000e44f500071ff36000bd9bf005a
:103ca000e14f500096003a000040eb0090feb70054
:103cb00011c1bf0001c8b300014060000004e00072
:103cc000fbff3a000040eb009bfeb7000040eb001a
:103cd0000efab70010c0b3003e18070080d0800075
:103ce000b0f3880010c0b3003a18070080d08000fd
:103cf000d0f3880010c0b3003618070080d08000d1
:103d0000c0f38800d0f380000000e00002003a0019
:103d100060892900d0f38800d1f3800060892900f0
:103d2000808f50000200360060892900d0f388009f
:103d3000d1f38000b0f28000808f5000020031008b
:103d4000b0f28000d0f38800c1f38000d0f2800090
:103d5000808f500002003600d0f28000c0f388004f
:103d60000040eb0020479800620037002e40900092
:103d70000080fb00000040006102200080804000c5
:103d800060e521000080400090007800c0f38000d2
:103d9000808f5000180031002e4090000004e00099
:103da000510032002e4090000080fb0000004000d7
:103db000010320008080400060e521000080400079
:103dc00090007800d0f38000808f500046003100d2
:103dd0002e4090000080fb00d2f3800000004000e5
:103de000010320008080400060e521000080400049
:103df000020878003c0037002e4090000080fb0055
:103e0000c2f380000000400061022000808040007a
:103e100060e5210000804000020878002e409000fc
:103e20000004e000140032002e4090000080fb00ef
:103e300000004000010320008080400060e5210078
:103e40000080400090007800d0f38000808f500008
:103e5000090031002e4090000080fb00d2f380006a
:103e600000004000010320008080400060e5210048
:103e700000804000020878002e4090000040e800da
:103e800020479800150037002e4090000080fb006e
:103e9000c2f38000000040006102200080804000ea
:103ea00060e5210000804000020878002e4090006c
:103eb0000080fb00000040000103200080804000e3
:103ec00060e521008080400060892900800878003a
:103ed0002e4090000040e800204798002e409000bf
:103ee000e44f5000e8ff36002e4090000040e8000c
:103ef000204798002e409000e44f50009bff360072
:103f00000bd9bf00e24f5000ed003a000040eb003b
:103f100090feb70011c1bf0001c8b30001406000ae
:103f20000004e000fbff3a000040eb009bfeb700fe
:103f30000040eb000efab70010c0b300a517070051
:103f40000040eb0020479800da00370081d0800065
:103f5000c0f38000808f5000390031002e40900067
:103f60000004e0000a003a002e4090000080fb00b0
:103f700082d080000000400061022000808040006c
:103f800060e521000080400002087800350037001d
:103f9000c2f380002e4090000080fb000000e9008a
:103fa00000004000610220008080400060e52100a8
:103fb00000804000100078008000510080d0800018
:103fc000808f50000a0031002e4090000080fb00de
:103fd000c2f38000000040006102200080804000a9
:103fe00060e5210000804000020878001d003700d5
:103ff0002e4090008081fb002e4090000080fb004e
:104000000000e900000040006102200080804000c4
:1040100060e52100008040009000780080d08000a2
:104020000081400003804100610220008080400048
:1040300060e5210000804000020878000900370098
:104040002e4090000080fb00c2f380000000400082
:10405000610220008080400060e521000080400077
:10406000020878002e4090000004e0002400320096
:104070002e4090000080fb00000040006102200004
:104080008080400060e52100008040001001780041
:104090002e4090000080fb000000e900000040007e
:1040a000610220008080400060e521000080400027
:1040b00010007800800f5100110031002e40900058
:1040c0008081fb002e4090000080fb000000e90092
:1040d00000004000610220008080400060e5210077
:1040e0000080400010017800038041006102200040
:1040f0008080400060e521000080400002087800d8
:1041000010c0b300331707002e4090000004e000f9
:104110001e003a0081d08000b0f28000808f5000f5
:104120000a0031002e4090000080fb00b2f28000b7
:1041300000004000010320008080400060e5210075
:1041400000804000020878002d00370081d08000f8
:1041500060892900808f50000200360060892900a4
:1041600080d088002e4090000080fb0082d080002c
:1041700000004000010320008080400060e5210035
:1041800000804000020878001d00370081d08000c8
:10419000d0f38000808f50000a0031002e40900044
:1041a0000080fb00d2f380000000400001032000eb
:1041b0008080400060e52100008040000208780017
:1041c0000f00370081d0800060892900808f500067
:1041d000020036006089290080d088002e409000bf
:1041e0000080fb0082d0800000004000010320001e
:1041f0008080400060e521000080400002087800d7
:104200002e4090000080fb00000040006102200072
:104210008080400060e52100008040009000780030
:10422000c0f38000808f50001d003a002e409000a7
:104230000040e80020479800150037002e4090000d
:104240000080fb00c2f380000000400061022000fb
:104250008080400060e52100008040000208780076
:104260002e4090000080fb00000040000103200071
:104270008080400060e52100808040006089290046
:10428000800878002e4090000040e8002047980009
:104290002e409000e44f5000e8ff36000500370044
:1042a00010c0b300cb1607002e4090000040e8007d
:1042b000204798002e409000e44f500023ff360026
:1042c0000bd9bf00e34f5000bb003a000040eb00a9
:1042d00090feb70011c1bf0001c8b30001406000eb
:1042e0000004e000fbff3a000040eb009bfeb7003b
:1042f000004021000100200070f2880081f2880057
:104300008002200090f2880020c0b30054feb70065
:10431000210420009140780000ceb30000c070005e
:1043200042e0b70054debf0092f280008041780086
:1043300070f2800081f280003b06070042c0bf009f
:104340007f40600042e0b700d0f3800030f1880089
:10435000b0f3800040f18800c0f3800050f1880085
:104360000040eb0020479800210037002e409000cd
:104370008081fb002e4090000080fb000000400088
:10438000610220008080400060e521000080400044
:104390001001780003804100e600400060e2210047
:1043a00000804000020878002e4090008081fb00d1
:1043b0002e4090000080fb00000040000103200020
:1043c0008080400060e521000080400010017800fe
:1043d00003804100f000400060e2210000804000c6
:1043e000020878002e4090000040e8002047980026
:1043f0002e409000e44f5000dcff360021042000e6
:104400009140780000ceb30000c0700042e0b700d9
:1044100071f2800080f28000dd06070054debf00ec
:1044200092f280008041780070f2800081f280007a
:104430005206070054debf0092f2800080417800ef
:1044400070f2800081f28000f705070042c0bf00d3
:104450007f40600042e0b70030f1800000f3880048
:1044600040f18000e0f2880050f18000f0f2880016
:104470000040eb00204798001f0037002e409000be
:104480008081fb002e4090000080fb000000400077
:10449000e600400060e2210000804000100178004a
:1044a00003804100ec00400060e5210000804000f6
:1044b000020878002e4090008081fb002e40900082
:1044c0000080fb0000004000f000400060e221009e
:1044d000008040001001780003804100f600400099
:1044e00060e5210000804000020878002e40900026
:1044f0000040e800204798002e409000e44f500014
:10450000deff360000f38000d0f38800e0f2800088
:10451000b0f38800f0f28000c0f388000040eb00a8
:1045200020479800210037002e4090008081fb003a
:104530002e4090000080fb0000004000ec00400096
:1045400060e52100008040001001780003804100f8
:10455000610220008080400060e521000080400072
:10456000020878002e4090008081fb002e409000d1
:104570000080fb0000004000f600400060e52100e4
:1045800000804000100178000380410001032000fa
:104590008080400060e52100008040000208780033
:1045a0002e4090000040e800204798002e409000e8
:1045b000e44f5000dcff36000bd9bf00e44f500041
:1045c000d4003a000040eb0090feb70011c1bf00dc
:1045d00001c8b300014060000004e000fbff3a00a6
:1045e0000040eb009bfeb70000f38000d0f3880092
:1045f000e0f28000b0f38800f0f28000c0f38800a1
:104600000040eb0020479800210037002e4090002a
:104610008081fb002e4090000080fb0000004000e5
:10462000ec00400060e521000080400010017800af
:1046300003804100610220008080400060e521008d
:1046400000804000020878002e4090008081fb002e
:104650002e4090000080fb0000004000f60040006b
:1046600060e52100008040001001780003804100d7
:10467000010320008080400060e5210000804000b0
:10468000020878002e4090000040e8002047980083
:104690002e409000e44f5000dcff3600c1f3800054
:1046a000d0f28000808f500002003600d0f28000ef
:1046b000c0f38800d1f38000b0f28000808f5000fa
:1046c00002003100b0f28000d0f388000040eb001f
:1046d000204798008c0037002e4090000080fb009f
:1046e00000004000610220008080400060e5210061
:1046f0000080400090007800c0f38000808f500060
:10470000300031002e4090000004e00015003a0017
:104710002e4090000080fb000000400001032000bc
:104720008080400060e5210000804000900078001b
:10473000b0f28000808f50001e0031002e409000ab
:104740000080fb00b2f28000000040000103200066
:104750008080400060e52100008040000208780071
:10476000140037002e4090000080fb000000400045
:10477000010320008080400060e5210000804000af
:1047800090007800d0f38000808f50000900310045
:104790002e4090000080fb00d2f38000000040001b
:1047a000010320008080400060e52100008040007f
:1047b000020878002e4090000040e8002047980052
:1047c000510037002e4090000080fb00c2f38000b3
:1047d00000004000610220008080400060e5210070
:1047e00000804000020878002e4090000004e000a5
:1047f00015003a002e4090000080fb0000004000b1
:10480000010320008080400060e52100008040001e
:1048100090007800b0f28000808f50001e003100c0
:104820002e4090000080fb00b2f2800000004000ab
:10483000010320008080400060e5210000804000ee
:1048400002087800140037002e4090000080fb0022
:1048500000004000010320008080400060e521004e
:104860000080400090007800d0f38000808f5000de
:10487000090031002e4090000080fb00d2f3800040
:1048800000004000010320008080400060e521001e
:1048900000804000020878002e4090000040e800b0
:1048a00020479800150037002e4090000080fb0044
:1048b000c2f38000000040006102200080804000c0
:1048c00060e5210000804000020878002e40900042
:1048d0000080fb00000040000103200080804000b9
:1048e00060e5210080804000608929008008780010
:1048f0002e4090000040e800204798002e40900095
:10490000e44f5000e8ff36002e409000e44f500086
:1049100071ff3600b19021009140780030c3b300a0
:1049200080cf500011003a000040eb0090feb7002d
:1049300011c1bf0001c8b300014060000004e000e5
:10494000fbff3a000040eb009bfeb7009adebf0081
:10495000e14f500003003a000040eb009afeb70020
:104960000200370010c0b3009afeb700b1902100da
:104970009140780010c3b30080cf500011003a007e
:104980000040eb0090feb70011c1bf0001c8b300aa
:10499000014060000004e000fbff3a000040eb0033
:1049a0009bfeb700a5debf00e14f500003003a00b8
:1049b0000040eb00a5feb7000200370010c0b300b6
:1049c000a5feb700b19021009140780020c3b3004c
:1049d00080cf500011003a000040eb0090feb7007d
:1049e00011c1bf0001c8b300014060000004e00035
:1049f000fbff3a000040eb009bfeb700a3debf00c8
:104a0000e14f500003003a000040eb00a3feb70066
:104a10000200370010c0b300a3feb7000bd9bf00df
:104a2000e54f50000f003a0098debf00e14f500004
:104a30000c003a000040eb0090feb70011c1bf002f
:104a400001c8b300014060000004e000fbff3a0031
:104a50000040eb009bfeb7006000b800e0f4880067
:104a6000f1f488000bd9bf00e64f500017003a0060
:104a70000040eb0090feb70011c1bf0001c8b300b9
:104a8000014060000004e000fbff3a0098debf0038
:104a9000e14f500007003a000040eb009bfeb700da
:104aa00020c0b30098feb70010c0b30099feb70055
:104ab000060037000040eb009bfeb70010c0b300bb
:104ac00098feb7000040eb0099feb7000bd9bf007d
:104ad000e74f500013003a0098debf00e14f50004e
:104ae00010003a000040eb0090feb70011c1bf007b
:104af00001c8b300014060000004e000fbff3a0081
:104b00000040eb009bfeb7006000b800e0f48800b6
:104b1000f1f4880020c0b30098feb70010c0b300c5
:104b200099feb7000bd9bf00e84f500010003a00c3
:104b30000040eb0090feb70011c1bf0001c8b300f8
:104b4000014060000004e000fbff3a0098debf0077
:104b5000e24f500006003a000040eb009bfeb70019
:104b600010c0b30098feb7000040eb0099feb700fc
:104b70000bd9bf00e94f50002f003a0090debf0074
:104b80000004e0002c00320091debf0010479800c6
:104b900090debf00004f78000040eb0090feb700b1
:104ba00011c1bf0001c8b300014060000004e00073
:104bb000fbff3a000040eb009bfeb70098debf0011
:104bc000e24f50001c003a0010c0b3009e4f10008e
:104bd00019003a00e2f48000f3f48000f0f3800062
:104be00001002000800f5100818f59001200350014
:104bf0001e409000e14f50000f003a0020c0b3006b
:104c000091feb70030c0b30090feb700b0f2800054
:104c100090f4880090f48000600888006000b8007c
:104c2000a0f48800b1f488000000eb0000f58800d3
:104c300011e1a80084e0a8000bd9bf00ea4f5000a2
:104c400043003a000040eb0090feb70011c1bf00e6
:104c500001c8b300014060000004e000fbff3a001f
:104c60000040eb009bfeb700a4debf00e14f500008
:104c700003003a00a5debf000004e0002d003a006a
:104c800098debf00e24f500015003a00e0f48000cb
:104c9000f1f48000e00f5000e08f58002c00340049
:104ca00020c0b30091feb70030c0b30090feb70043
:104cb000b0f2800090f4880090f4800060088800d2
:104cc0006000b800a0f48800b1f488000000eb0098
:104cd00000f5880011e1a80084e0a8001c0037005e
:104ce00020c0b30091feb70030c0b30090feb70003
:104cf000b0f2800090f4880090f480006008880092
:104d0000e2f48000f3f48000c0f380000100200092
:104d10000000510081805900a0f48800b1f488009f
:104d20000000eb0000f5880011e1a80084e0a80075
:104d30000700370020c0b30098feb7006000b8003d
:104d4000e0f48800f1f4880010c0b30099feb700c9
:104d50000bd9bf00eb4f50006e003a000040eb0053
:104d600090feb70011c1bf0001c8b3000140600050
:104d70000004e000fbff3a000040eb009bfeb700a0
:104d8000a2debf000004e00003003200a3debf008b
:104d90000004e0005f003a00e4debf00e14f500095
:104da000030032009adebf000004e00059003a0020
:104db000e0f48000f1f48000e00f5000e08f580034
:104dc00054003500e2f48000f3f4800020f4800009
:104dd00001002000800f5100818f59004d003d00df
:104de000e2f48000f3f4800010f480000100200061
:104df000800f5100818f59000700350070f480004a
:104e000090f4880020f4800001002000a0f48800c5
:104e1000b1f4880030003700e2f48000f3f4800041
:104e200000f4800001002000800f5100818f5900a4
:104e30000700350060f4800090f4880010f48000d2
:104e400001002000a0f48800b1f48800220037009f
:104e5000e2f48000f3f48000f0f380000100200011
:104e6000800f5100818f59000700350050f48000f9
:104e700090f4880000f4800001002000a0f4880075
:104e8000b1f4880014003700e2f48000f3f48000ed
:104e9000e0f3800001002000800f5100818f590055
:104ea0000700350040f4800090f48800f0f38000a3
:104eb00001002000a0f48800b1f48800060037004b
:104ec00030f4800090f48800e0f3800001002000be
:104ed000a0f48800b1f4880090f480006008880095
:104ee00010c0b30091feb70010c0b30090feb70031
:104ef0000000eb0000f588000040eb0022ffb70047
:104f000011e1a80084e0a800e482a80010c0b3006a
:104f100018ffb7000bd9bf00ec4f500084003a00d7
:104f20000040eb0090feb70011c1bf0001c8b30004
:104f3000014060000004e000fbff3a000040eb008d
:104f40009bfeb700a4debf00e14f500003003a0013
:104f5000a5debf000004e00075003a000040eb0051
:104f60000efab70010c0b3009a13070080d080007b
:104f70000000e0006e00320081d08000c0f38000ad
:104f8000808f500002003900c0f3800080d088007c
:104f900098debf000080fb00400798004e009000a4
:104fa000e10f50002e0032004e009000e20f500042
:104fb000010032005e003700e0f48000f1f4800070
:104fc000e00f5000e08f580059003400e2f48000f8
:104fd000f3f4800080d08000010020000000510028
:104fe00081805900a0f48800b1f48800a0f480000a
:104ff000b1f48000e00f5000e08f580003003d0046
:105000006000b800a0f48800b1f4880010c0b300bc
:105010007013070080d0800090f4880091f4800025
:10502000b0f28000808f500002003100b0f28000aa
:1050300090f4880090f48000600888000000eb0085
:1050400000f5880020c0b30091feb70030c0b30067
:1050500090feb70011e1a80084e0a80034003700fa
:10506000e2f48000f3f48000c0f38000010020002f
:1050700060001000e0801800800f5100818f5900ff
:105080002b003400e2f48000f3f4800080d0800034
:10509000010020000000510081805900a0f4880028
:1050a000b1f48800a2f48000b3f48000c0f3800063
:1050b0000100200060001000e0801800800f510007
:1050c000818f590006003d00c0f3800001002000e0
:1050d00060001000e0801800a0f48800b1f488009f
:1050e00010c0b3003b13070080d0800090f488000c
:1050f00091f48000b0f28000808f500002003100f7
:10510000b0f2800090f4880090f48000600888007d
:105110000000eb0000f5880020c0b30091feb7004e
:1051200030c0b30090feb70011e1a80084e0a800f1
:105130000bd9bf00ed4f50008e003a0090debf004b
:10514000004f78000040eb0090feb70011c1bf0097
:1051500001c8b300014060000004e000fbff3a001a
:105160000040eb009bfeb700e4debf00e14f5000c3
:10517000030032009adebf000004e0007d003a0028
:10518000a2debf000004e00003003200a3debf0087
:105190000004e00077003a000040eb000efab70090
:1051a00010c0b3000b13070080d080000000e000a7
:1051b0007000320081d08000c0f38000808f5000ea
:1051c00002003600c0f3800080d0880098debf0067
:1051d0000080fb00300798003e009000e10f500077
:1051e000360032003e009000e20f50000100320015
:1051f0006000370010c0b3009e4f10005d00320009
:10520000e2f48000f3f4800020f48000010020002c
:10521000800f5100818f590056003d00e2f480005c
:10522000f3f4800080d080000100200002004000e4
:1052300083804800a0f48800b1f48800a2f48000c4
:10524000b3f4800020f4800001002000800f5100a2
:10525000818f59000400340020f4800001002000f8
:10526000a0f48800b1f4880010c0b300d912070080
:1052700080d0800090f4880091f48000b0f280002b
:10528000808f500002003100b0f2800090f488005e
:1052900090f48000600888000000eb0000f58800b2
:1052a00010c0b30091feb70030c0b30090feb7004d
:1052b00011e1a80084e0a8002e003700e2f480008d
:1052c000f3f48000c0f3800001002000800f510043
:1052d000818f590027003d00e2f48000f3f4800044
:1052e00080d0800001002000020040008380480040
:1052f000a0f48800b1f48800a2f48000b3f4800028
:10530000c0f3800001002000800f5100818f590000
:1053100004003400c0f3800001002000a0f48800e5
:10532000b1f4880010c0b300aa12070080d080003a
:1053300090f4880091f48000b0f28000808f5000db
:1053400002003100b0f2800090f4880090f48000f8
:10535000600888000000eb0000f5880010c0b30072
:1053600091feb70030c0b30090feb70011e1a80075
:1053700084e0a8000bd9bf00ee4f500078003a003f
:105380000040eb0090feb70011c1bf0001c8b300a0
:10539000014060000004e000fbff3a000040eb0029
:1053a0009bfeb700e4debf00e14f50000300320077
:1053b0009adebf000004e00069003a00a2debf00f0
:1053c0000004e00003003200a3debf000004e000a0
:1053d00063003a0098debf000080fb0020079800c1
:1053e0002e009000e10f50002e0032002e009000a1
:1053f000e20f50000100320059003700e2f4800053
:10540000f3f4800020f4800001002000800f5100a0
:10541000818f590052003d0020f4800001002000df
:10542000a0f48800b1f48800d0f3800090f48800e4
:10543000e2f48000f3f48000e0f38000010020003b
:10544000800f5100818f590006003d00e0f380007d
:1054500001002000a0f48800b1f4880030f480003e
:1054600090f4880090f48000600888000000eb0051
:1054700000f5880010c0b30091feb70020c0b30053
:1054800090feb7000040eb0022ffb70011e1a8003a
:1054900084e0a800e482a80010c0b30018ffb700a1
:1054a0002f003700e2f48000f3f48000e0f3800086
:1054b00001002000800f5100818f590007003d003e
:1054c000e0f3800001002000a0f48800b1f488001f
:1054d00030f4800090f4880012003700e2f480007d
:1054e000f3f4800020f4800001002000800f5100c0
:1054f000818f590005003d0020f48000010020004c
:10550000a0f48800b1f4880004003700c0f38000e4
:1055100001002000a0f48800b1f48800d0f38000de
:1055200090f4880090f48000600888000000eb0090
:1055300000f5880010c0b30091feb70020c0b30092
:1055400090feb7000040eb0022ffb70011e1a80079
:1055500084e0a800e482a80010c0b30018ffb700e0
:105560000080fa00000006000400fa00a2debf007e
:105570000080fb00100798001e009000f00f500004
:10558000040032001e009000f10f5000370032007e
:10559000420037009660a900dac2bf006240600096
:1055a0000004e0002d00320010c0b300a2feb700de
:1055b0009660a800a3debf00e14f500037003a001c
:1055c00090debf000004e0003400320091debf0036
:1055d000e14f500031003a000040eb0090feb70070
:1055e00011c1bf0001c8b300014060000004e00029
:1055f000fbff3a0098debf00e24f500027003a0060
:10560000e2f48000f3f48000f0f380000100200059
:10561000800f5100818f59002000350020c0b30059
:1056200091feb70030c0b30090feb700b0f280002a
:1056300090f4880090f48000600888006000b80052
:10564000a0f48800b1f488000000eb0000f58800a9
:1056500011e1a80084e0a800100037000040eb0032
:10566000a2feb7009660a8000c0037009660a90063
:10567000dac2bf00624060000004e00004003a00ab
:105680000040eb00a2feb7009660a80003003700c0
:1056900010c0b300a2feb7009660a800a4debf0051
:1056a0000080fb00000f78001e007800f00f500013
:1056b000040032001e007800f10f50003600320066
:1056c000410037009660a900d3c2bf000044b20079
:1056d0000004e0002c00320010c0b300a4feb700ac
:1056e0009660a800a5debf00e14f500036003a00ea
:1056f00090debf000004e0001800320091debf0021
:10570000e24f500030003a000040eb0090feb7003e
:1057100011c1bf0001c8b300014060000004e000f7
:10572000fbff3a00e482a9000040eb0018ffb7003d
:1057300098debf00e24f50002300320020c0b300cb
:1057400098feb7006000b800e0f48800f1f488002b
:1057500010c0b30099feb7001b00370098debf00f1
:10576000e24f50001800320020c0b30098feb7008e
:105770006000b800e0f48800f1f4880010c0b300c5
:1057800099feb700100037000040eb00a4feb70000
:105790009660a8000c0037009660a900d3c2bf0035
:1057a0000044b2000004e00004003a000040eb00b6
:1057b000a4feb7009660a8000300370010c0b30035
:1057c000a4feb7009660a800a2debf00e14f500023
:1057d00005003a00a4debf00e14f500002003a008d
:1057e00010c0b300a6feb7000080fa00000006005b
:1057f0000000fa009bdebf00e14f5000a3003a001a
:1058000090debf00e14f50005d003a00a2f480003e
:10581000b3f4800020f4800001002000800f5100cc
:10582000818f590016003a0098debf00e14f50000a
:1058300003003a000040eb0090feb70091003700f3
:1058400020c0b30091feb70030c0b30090feb70097
:10585000b0f2800090f4880090f480006008880026
:105860006000b800a0f48800b1f488000000eb00ec
:1058700000f5880011e1a80084e0a800810037004d
:10588000a2f48000b3f4800010f480000100200036
:10589000800f5100818f590009003a0070f4800098
:1058a00090f4880090f480006008880020f4800064
:1058b00001002000a0f48800b1f4880071003700d6
:1058c000a2f48000b3f4800000f480000100200006
:1058d000800f5100818f590009003a0060f4800068
:1058e00090f4880090f480006008880010f4800034
:1058f00001002000a0f48800b1f4880061003700a6
:10590000a2f48000b3f48000f0f3800001002000d6
:10591000800f5100818f590009003a0050f4800037
:1059200090f4880090f480006008880000f4800003
:1059300001002000a0f48800b1f488005100370075
:10594000a2f48000b3f48000e0f3800001002000a6
:10595000800f5100818f59004a003a0040f48000c6
:1059600090f4880090f4800060088800f0f38000d4
:1059700001002000a0f48800b1f488004100370045
:1059800090debf00e24f500026003a00a2f48000f3
:10599000b3f48000e0f3800001002000800f51008c
:1059a000818f590009003a0020f480000100200096
:1059b000a0f48800b1f48800d0f3800090f488004f
:1059c00090f48000600888002e00370098debf0049
:1059d000e14f500003003a000040eb0090feb7009a
:1059e0002800370020c0b30091feb70030c0b300dc
:1059f00090feb700b0f2800090f4880090f4800030
:105a0000600888006000b800a0f48800b1f4880045
:105a10000000eb0000f5880011e1a80084e0a80078
:105a20001800370091debf00e24f500013003a002b
:105a3000e0f48000f1f48000e00f5000e08f5800a7
:105a400003003a00e482a9000040eb0018ffb70011
:105a500001f58000c0f38000808f500007003a00fd
:105a6000a4debf000004e00004003a0030c0b30030
:105a7000a6feb70010c0b30019ffb7000040eb004e
:105a800090feb7000040eb009bfeb7000080fa00dc
:105a9000000006000000fa0011c1bf0001c8b300f9
:105aa000014060000004e0000e003a00e422a9007a
:105ab000e402a900ec22a900ec02a9000040eb00de
:105ac00090feb7000040eb0091feb7000000eb0035
:105ad00090f488006000b800a0f48800b1f4880059
:105ae0001f00370001f58000800c2000808f5000df
:105af0001b00360091debf00e14f500010003a005d
:105b0000a4debf00e14f500015003a00a6debf0042
:105b10000004e00012003a0020c0b300a6feb70067
:105b2000a5debf00e14f50000d003a000040eb0041
:105b300090feb70010c0b30019ffb700080037008f
:105b4000a2debf00e14f500005003a00a6debf0014
:105b50000004e00002003a0040c0b300a6feb70017
:105b60000080fa00000006000200fa0090debf008c
:105b70000004e0002a00320091debf00e14f500037
:105b800027003a0090debf00004f78000040eb0095
:105b900090feb70011c1bf0001c8b3000140600012
:105ba0000004e000fbff3a000040eb009bfeb70062
:105bb00098debf00e24f500019003a0010c0b30059
:105bc0009e4f100016003a00e2f48000f3f48000cb
:105bd000f0f3800001002000800f5100818f5900f8
:105be0000f00350020c0b30091feb70030c0b300f5
:105bf00090feb700b0f2800090f4880090f480002e
:105c0000600888006000b800a0f48800b1f4880043
:105c10000000eb0000f5880011e1a80084e0a80076
:105c20000080fa00000006001000fa00400798000b
:105c30005107980062079800634f98000040eb00fe
:105c4000204798000000eb00000f78006000b800cb
:105c5000200798003107980033003700ce009000ed
:105c60005e0090003500070020079800310798007b
:105c7000220037006e0090009e0f10001d003100c2
:105c80006e489000e14f500009003a001e01780074
:105c90002e4090000080fb000e0040006400400099
:105ca0009040780000e021000000410001487800a9
:105cb0006e489000e24f500009003a001e01780043
:105cc0002e4090000080fb000e0040006400400069
:105cd0009040780060e22100000041000148780017
:105ce0002e4090000040e800204798001e0fe8007a
:105cf0000200370030c0b300204798002e409000cb
:105d0000e24f5000dbff36000040eb0020479800d8
:105d10004e009000de00900062004000e0804800ed
:105d200040079800510798006e0090009e0f1000e9
:105d3000caff39000080fa00000006000800fa00df
:105d400020079800310798006000b800008fbe005f
:105d50002e009000900188003e0090001000ba00d4
:105d6000000f78003e0090001080ba0010079800e5
:105d70001e00be000080fa00000006001400fa00b9
:105d80006007980071079800020f98002357980049
:105d90000040eb003047980010c0b3002047980047
:105da0000000eb00000f78006e009000fe009000f5
:105db00020079800310798006000b800400798005d
:105dc000510798004c0037000e0890009e0f1000fd
:105dd0001a0031002e509000e14f500009003a00a7
:105de0003e4090000081fb009e00780000e0210012
:105df00000804000904078000e00410068004000a4
:105e0000014878002e509000e24f500009003a00ff
:105e10003e4090000081fb009e00780060e221007f
:105e200000804000904078000e0041006800400073
:105e3000014878001e0fe800060037003e40900041
:105e40000080fb000e004000e80040000040eb0036
:105e5000804878003e4090000040e80030479800bd
:105e60003e409000e34f500012003a004e00900078
:105e70005e019000ee0090007e02900080017800ac
:105e800004007800210007006e009000fe009000e2
:105e900062004000e08048006007980071079800a9
:105ea0006000b80040079800510798000040eb00e0
:105eb000304798006e029000fe0290002e01900084
:105ec000be0190002e4090000080fb004700dd00e6
:105ed000cf80de000200400083804800800f520027
:105ee000818f5a00b8ff3900170007002e4090003c
:105ef0000040e800204798000e0890009e0f100018
:105f0000ecff39000080fa00000006000800fa00eb
:105f1000000f7800110798002207980033079800b7
:105f20001e007800900188009e0090003e009000c6
:105f30008008bb009e0090002e0090008088bb006f
:105f40000080fa00000006000200fa0010002400a1
:105f5000003b88001e00780050052000303b880080
:105f6000a00a2000303b880061e7a8000000000084
:105f70000000000061c7bf0001c8b300014060001d
:105f80000004e000fbff3a000080fa000000060079
:105f90000800fa0010079800210798000000eb00a5
:105fa000000f780090018000000f78001e00900024
:105fb0009001880020042400003b8800ae0090007f
:105fc0000000eb008008bb000500fc003e009000d4
:105fd00050052000303b8800a00a2000303b88009c
:105fe00061e7a800000000000000000061c7bf00da
:105ff00001c8b300014060000004e000fbff3a006c
:106000001e007800900188000080fa000000060061
:106010000200fa00000021000100200070f2880058
:1060200081f288006002200090f2880010c0b30066
:1060300054feb70054debf0092f280008041780029
:1060400070f2800081f28000f7fe070000f080000f
:10605000b0f2880010f08000c0f2880020f08000cc
:10606000d0f28800b0f28000e10f400002003a0058
:1060700060892900b0f28800c0f28000e10f400082
:1060800002003a0010002000c0f28800d0f2800028
:10609000e10f400002003a0080de2f00d0f28800bd
:1060a00030f0800000f8880008debf00fefeb70078
:1060b000fedebf00e14f500005003a0010c0b30003
:1060c000fdfeb70000f8800010f8880006003700d9
:1060d0000040eb00fefeb7000040eb00fdfeb70005
:1060e0000000eb0010f888000040eb00004f780043
:1060f0000a0037001e81fb001e80fb00e800400004
:1061000000e02100008040009040900080ea2100e3
:1061100000004100014878001e4fe80070c1b30044
:106120009e4f1000f3ff36000040210001002000c8
:1061300070f2880081f288008002200090f28800ce
:1061400020c0b30054feb70054debf0092f28000be
:106150008041780070f2800081f28000b2fe07007a
:1061600030f1800000f3880040f18000e0f2880008
:1061700050f18000f0f2880000f38000e10f400051
:1061800002003a00b0f2800000f38800e0f28000e4
:10619000e10f400002003a0010002000e0f2880009
:1061a000f0f28000e10f400002003a00d0f28000df
:1061b000f0f288000040eb00004f78003900370013
:1061c0001e81fb001e80fb0000004000e600400036
:1061d00060e2210000804000900178000200410050
:1061e000ec00400060e521000080400003087800da
:1061f0001e80fb0000004000ec00400060e5210034
:10620000008040009000780080de2f00808f5000da
:10621000070036001e80fb0000004000ec0040003c
:1062200060e521008080400080de2f00800878003b
:106230001e81fb001e80fb0000004000f0004000bb
:1062400060e22100008040009001780002004100df
:10625000f600400060e5210000804000030878005f
:106260001e80fb0000004000f600400060e52100b9
:10627000008040009000780060892900808f5000e5
:10628000070036001e80fb0000004000f6004000c2
:1062900060e5210080804000608929008008780046
:1062a0001e4fe80040c0b3009e4f1000c4ff3600f0
:1062b00000f38000d0f38800e0f28000b0f38800a3
:1062c000f0f28000c0f388000040eb00004f78003f
:1062d0001b0037001e81fb001e80fb0000004000f9
:1062e000ec00400060e52100008040009001780053
:1062f00002004100610220008080400060e5210032
:1063000000804000030878001e81fb001e80fb0017
:1063100000004000f600400060e5210000804000e1
:1063200090017800020041000103200080804000bd
:1063300060e5210000804000030878001e4fe8005f
:1063400040c0b3009e4f1000e2ff3600c1f3800052
:10635000d0f28000808f500002003600d0f2800022
:10636000c0f38800d1f38000b0f28000808f50002d
:1063700002003100b0f28000d0f388000040eb0052
:10638000004f7800780037001e80fb0000004000be
:10639000610220008080400060e521000080400014
:1063a00090007800c0f38000808f500029003100f9
:1063b0001e04e00013003a001e80fb0000004000b5
:1063c000010320008080400060e521000080400043
:1063d00090007800b0f28000808f50001b003100e8
:1063e0001e80fb00b2f2800000004000010320008c
:1063f0008080400060e521000080400002087800b5
:10640000120037001e80fb00000040000103200046
:106410008080400060e5210000804000900078000e
:10642000d0f38000808f5000080031001e80fb00f8
:10643000d2f3800000004000010320008080400073
:1064400060e5210000804000020878001e4fe8004f
:10645000450037001e80fb00c2f3800000004000b2
:10646000610220008080400060e521000080400043
:10647000020878001e04e00013003a001e80fb00b2
:1064800000004000010320008080400060e5210002
:106490000080400090007800b0f28000808f5000b3
:1064a0001b0031001e80fb00b2f2800000004000a3
:1064b000010320008080400060e521000080400052
:1064c00002087800120037001e80fb000000400028
:1064d000010320008080400060e521000080400032
:1064e00090007800d0f38000808f500008003100c9
:1064f0001e80fb00d2f3800000004000010320005a
:106500008080400060e521000080400002087800a3
:106510001e4fe800110037001e80fb00c2f3800010
:1065200000004000610220008080400060e5210002
:1065300000804000020878001e80fb000000400040
:10654000010320008080400060e521008080400041
:1065500060892900800878001e4fe80040c0b30021
:106560009e4f1000ecff360040c0b3009e4f10005d
:1065700085ff360000f2800000f6880000f68000fb
:10658000e10f400002003a000000eb0000f6880036
:1065900000f6800030f6880010f2800030f78800a6
:1065a00030f78000e10f400002003a000000eb00ed
:1065b00030f7880030f7800060f7880020f2800014
:1065c00040f7880040f78000e10f400002003a00e9
:1065d0004006200040f7880040f7800070f78800f0
:1065e00030f2800050f7880050f78000e10f400043
:1065f00002003a001000200050f7880050f7800099
:1066000080f7880040f28000e0f68800e0f6800025
:10661000e10f400002003a0020032000e0f688006d
:10662000e0f68000d0f6880050f2800010f7880075
:1066300010f78000e10f400002003a00a0002000a7
:1066400010f7880010f7800000f7880060f28000e3
:1066500080f6880080f68000e10f400002003a00da
:1066600000a3220080f6880080f6800090f6880063
:1066700090f68000b0f688000080fa000000060066
:106680000200fa00b19021009140780050c3b3009d
:1066900080cf5000b6003a000040eb0090feb700fb
:1066a00011c1bf0001c8b300014060000004e00058
:1066b000fbff3a000040eb009bfeb700000021000a
:1066c0000100200070f2880081f288006002200042
:1066d00090f2880010c0b30054feb70021042000df
:1066e0009140780000ceb30000c0700042e0b700d7
:1066f00054debf0092f280008041780070f280008a
:1067000081f2800048fd07000040210001002000c8
:1067100070f2880081f288008002200090f28800e8
:1067200020c0b30054feb70054debf0092f28000d8
:106730008041780070f2800081f280003afd07000d
:1067400042c0bf007f40600042e0b70051c3b300c9
:106750000040eb00460d070021debf000081fb007a
:10676000030020000040eb004e0d070022debf00ba
:106770000081fb00030020000040eb00490d0700f2
:1067800023debf000081fb00030020000040eb007f
:10679000440d070024debf000081fb000300200041
:1067a0000040eb003f0d070025debf000081fb002d
:1067b000030020000040eb003a0d070000f08000cd
:1067c0006101b80010c0b300360d070010f0800062
:1067d0006101b80010c0b300320d070020f0800046
:1067e0006101b80010c0b3002e0d070030f1800029
:1067f0006101b80010c0b3002a0d070040f180000d
:106800006101b80010c0b300260d070050f18000f0
:106810006101b80010c0b300220d070060f18000d4
:106820006101b80010c0b3001e0d070070f18000b8
:106830006101b80010c0b3001a0d070080f180009c
:106840006101b80010c0b300160d070090f1800080
:106850006101b80010c0b300120d0700a0f1800064
:106860006101b80010c0b3000e0d0700b0f1800048
:106870006101b80010c0b3000a0d0700c0f180002c
:106880006101b80010c0b300060d0700d0f1800010
:106890006101b80010c0b300020d0700e0f18000f4
:1068a0006101b80010c0b300fe0c0700f0f18000d9
:1068b0006101b80010c0b300fa0c070000f28000bc
:1068c0006101b80010c0b300f60c070010f28000a0
:1068d0006101b80010c0b300f20c070020f2800084
:1068e0006101b80010c0b300ee0c070030f2800068
:1068f0006101b80010c0b300ea0c070040f280004c
:106900006101b80010c0b300e60c070050f280002f
:106910006101b80010c0b300e20c070060f2800013
:106920006101b80010c0b300de0c07000040eb00ae
:10693000004f7800090037009e80fb0080ea2100ac
:1069400000804000104078000081fb000300200020
:106950000040eb00d30c07001e4fe80070c1b300ed
:106960009e4f1000f4ff3600130d0700a909070021
:10697000b19021009140780060c3b30080cf5000f7
:10698000da003a000040eb0090feb70011c1bf00f2
:1069900001c8b300014060000004e000fbff3a00c2
:1069a0000040eb009bfeb70000002100010020002a
:1069b00070f2880081f288006002200090f2880066
:1069c00010c0b30054feb7002104200091407800ad
:1069d00000ceb30000c0700042e0b70054debf003c
:1069e00092f280008041780070f2800081f2800095
:1069f0008dfc0700004021000100200070f288009b
:106a000081f288008002200090f2880020c0b3004c
:106a100054feb70054debf0092f28000804178003f
:106a200070f2800081f280007ffc070042c0bf004e
:106a30007f40600042e0b7000040eb000efab70074
:106a40000040eb00e30c070010dabf0021feb700a6
:106a50000040eb00df0c070010dabf0022feb70099
:106a60000040eb00db0c070010dabf0023feb7008c
:106a70000040eb00d70c070010dabf0024feb7007f
:106a80000040eb00d30c070010dabf0025feb70072
:106a900010c0b300cf0c070080d0800000f0880049
:106aa00010c0b300cb0c070080d0800010f088002d
:106ab00010c0b300c70c070080d0800020f0880011
:106ac00010c0b300c30c070080d0800030f18800f4
:106ad00010c0b300bf0c070080d0800040f18800d8
:106ae00010c0b300bb0c070080d0800050f18800bc
:106af00010c0b300b70c070080d0800060f18800a0
:106b000010c0b300b30c070080d0800070f1880083
:106b100010c0b300af0c070080d0800080f1880067
:106b200010c0b300ab0c070080d0800090f188004b
:106b300010c0b300a70c070080d08000a0f188002f
:106b400010c0b300a30c070080d08000b0f1880013
:106b500010c0b3009f0c070080d08000c0f18800f7
:106b600010c0b3009b0c070080d08000d0f18800db
:106b700010c0b300970c070080d08000e0f18800bf
:106b800010c0b300930c070080d08000f0f18800a3
:106b900010c0b3008f0c070080d0800000f2880086
:106ba00010c0b3008b0c070080d0800010f288006a
:106bb00010c0b300870c070080d0800020f288004e
:106bc00010c0b300830c070080d0800030f2880032
:106bd00010c0b3007f0c070080d0800040f2880016
:106be00010c0b3007b0c070080d0800050f28800fa
:106bf00010c0b300770c070080d0800060f28800de
:106c00000040eb00004f78000a0037000040eb0026
:106c1000700c07001e80fb0002a1210012417800c9
:106c2000e800400000e02100008040001240980091
:106c30001e4fe80070c1b3009e4f1000f3ff3600f6
:106c4000000021000100200070f2880081f288001d
:106c50006002200090f2880010c0b30054feb7001c
:106c6000210420009140780000ceb30000c07000e5
:106c700042e0b70071f2800080f28000c4fc07009f
:106c800054debf0092f280008041780070f28000f4
:106c900081f2800039fc0700004021000100200043
:106ca00070f2880081f288008002200090f2880053
:106cb00020c0b30054feb70071f2800080f2800063
:106cc000b3fc070054debf0092f2800080417800e0
:106cd00070f2800081f2800028fc070042c0bf00f3
:106ce0007f40600042e0b700c9fc07000080fa0066
:106cf000000006000000fa00e8c2a800eec2a900e9
:106d00006900a8007500a9005d00a900e842a8007c
:106d1000ee42a90068c0a80074c0a9005cc0a90028
:106d2000e862a800ee62a90068e0a80074e0a9008b
:106d30005ce0a900e8a2a800eea2a9006240a800b9
:106d40006e40a9005640a900d802a900de02a900a1
:106d50006620a9007220a9005a20a9000080fa002c
:106d6000000006000000fa00e2ff07000040eb0010
:106d7000c2feb700dc02a9000040eb00c4feb70071
:106d80008c10070030f68000b00c88000040eb004b
:106d9000cdfeb70080c1b300ccfeb700f8000700fd
:106da0000080fa00000006000000fa00b190210007
:106db00091407800a0c2b30080cf500018003a0084
:106dc000c3debf000004e0000e003a00c2debf00d8
:106dd000e14f500008003a00dc02a9000040eb003f
:106de000c4feb70010c0b300c3feb7000040eb0004
:106df000c2feb7000a00370010c0b300c3feb700e0
:106e0000070037000040eb00c3feb700d9debf002b
:106e10000004e00002003a001000200080f7880023
:106e2000b19021009140780030c2b30080cf500073
:106e300020003a00c4debf000004e0001d003a005c
:106e4000ccdebf000004e0001a003a0021dfbf00e2
:106e5000e14f50000300320020dfbf000004e000db
:106e600014003a001fdfbf00e14f50000300320062
:106e70001edfbf000004e0000e003a0080f0210099
:106e800060409000e14f50000400320080f021008b
:106e9000104078000004e00006003a00c2debf00a7
:106ea000e14f500003003a00dc02a80010c0b3001c
:106eb000c4feb700b19021009140780000c2b30039
:106ec00080cf500003003a00dc02a9000040eb0034
:106ed000c4feb700b19021009140780040c2b300d9
:106ee00080cf50000e003a000040eb000efab700d1
:106ef00010c0b300b70b070081d0800000352c0014
:106f0000808f50000200360000352c0080d08800b1
:106f100080d0800030f6880030f68000b00c880009
:106f2000b19021009140780070c3b30080cf500031
:106f300056003a00000021000100200070f2880095
:106f400081f288006002200090f2880010c0b30037
:106f500054feb700210420009140780000ceb30019
:106f600000c0700042e0b70054debf0092f2800023
:106f70008041780070f2800081f280002afb0700d7
:106f800042c0bf007f40600042e0b7000040eb001d
:106f9000cefeb7000040eb000efab7000d00370040
:106fa0000040eb008b0b0700cedebf000080fb0033
:106fb00002a1210012417800e800400000e0210019
:106fc0000080400012409800cedebf000040e80084
:106fd000cefeb700cedebf00f74f5000f0ff360008
:106fe000210420009140780000ceb30000c0700062
:106ff00042e0b70071f2800080f28000e4fb0700fd
:1070000054debf0092f280008041780070f2800070
:1070100081f2800059fb070054debf0092f280002d
:107020008041780070f2800081f28000fefa070053
:1070300042c0bf007f40600042e0b7000040eb006c
:10704000cefeb7000e003700cedebf000081fb0091
:10705000cedebf000080fb00e800400000e0210021
:10706000008040009040900080ea21000000410034
:1070700001487800cedebf000040e800cefeb70039
:10708000cedebf00f74f5000efff3600b190210079
:107090009140780080c2b30080cf50002f003a00aa
:1070a000004021000100200070f2880081f2880079
:1070b0008002200090f2880020c0b30054feb70088
:1070c000210420009140780000ceb30000c0700081
:1070d00042e0b70054debf0092f2800080417800a9
:1070e00070f2800081f28000cffa070030f6800055
:1070f00000f2880071f2800080f28000a4fb07009b
:1071000054debf0092f280008041780070f280006f
:1071100081f2800019fb070054debf0092f280006c
:107120008041780070f2800081f28000befa070092
:1071300000f2800000f6880001f6800030f6800042
:10714000808f5000020032000000eb0030f6880013
:1071500042c0bf007f40600042e0b700b190210014
:107160009140780090c2b30080cf500002003a00f6
:1071700000f6800030f688000080fa00000006006b
:107180000600fa00ccdebf00f84f5000d3003a00f2
:107190009660a90050178000000f7800c0062000fc
:1071a0001e00600040f6880041f6800050f6800026
:1071b000808f5000c600320040f6800050f68800f4
:1071c00041f68000c0062000808f500004003a0085
:1071d0000040eb00ccfeb7009660a800bf0037006f
:1071e00040f680006101b80012079800230798005c
:1071f00080062000010020001e019000ae019000da
:10720000800f5100818f5900a7003e001e009000a2
:10721000ae00900000600100a0003700a20037001f
:10722000a1003700a0003700940037009e0037000f
:107230009d0037009c003700880037009a00370017
:1072400099003700980037007c003700960037001f
:107250009500370094003700930037009200370004
:1072600091003700900037008f0037008e00370004
:107270008d0037008c0037008b0037008a00370004
:107280008900370088003700870037008600370004
:107290008500370084003700600037008200370027
:1072a0008100370080003700540037007e0037002f
:1072b0007d0037007c003700480037007a00370037
:1072c00079003700780037003c003700760037003f
:1072d0007500370074003700730037007200370004
:1072e00071003700700037006f0037006e00370004
:1072f0006d0037006c0037006b0037006a00370004
:107300006900370068003700670037006600370003
:1073100065003700640037005c003700620037000a
:107320006100370060003700500037005e00370012
:107330005d0037005c003700440037005a0037001a
:107340005900370058003700380037005600370022
:107350005500370054003700530037005200370003
:1073600051003700500037004f0037004e00370003
:107370004d0037004c0037004b0037004a00370003
:107380004900370048003700470037004600370003
:1073900045003700440037001c003700420037002a
:1073a0004100370040003700100037003e00370032
:1073b0003d0037003c0037000400370010c0b30028
:1073c000ccfeb7009660a8003700370020c0b3009d
:1073d000ccfeb7009660a8003300370030c0b30081
:1073e000ccfeb7009660a8002f00370040c0b30065
:1073f000ccfeb7009660a8002b00370050c0b30049
:10740000ccfeb7009660a8002700370060c0b3002c
:10741000ccfeb7009660a8002300370070c0b30010
:10742000ccfeb7009660a8001f00370080c0b300f4
:10743000ccfeb7009660a8001b00370090c0b300d8
:10744000ccfeb7009660a80017003700a0c0b300bc
:10745000ccfeb7009660a80013003700b0c0b300a0
:10746000ccfeb7009660a8000f003700c0c0b30084
:10747000ccfeb7009660a8000b003700d0c0b30068
:10748000ccfeb7009660a80007003700e0c0b3004c
:10749000ccfeb7009660a80003003700f0c0b30030
:1074a000ccfeb7009660a80022dfbf000004e00019
:1074b00002003a0010c0b30022ffb700dc02a900ae
:1074c0000040eb00c4feb700a7f907000300370037
:1074d000cddebf00ccfeb7009660a800d8debf00ae
:1074e000e14f500047003a0021dfbf000004e000f8
:1074f0000c003a0020dfbf00e14f500009003a00c5
:10750000c4debf00e14f500003003a00dc02a900d6
:107510000040eb00c4feb7000040eb00c2feb70025
:107520003800370080f0210060409000e14f5000ab
:107530001100320080f0210060409000f84f5000b0
:107540000d00320080f0210010407800e14f500023
:1075500009003a00c4debf00e14f500003003a00ca
:10756000dc02a9000040eb00c4feb7000040eb00c5
:10757000c2feb700230037001fdfbf000004e00099
:107580000c003a001edfbf00e14f500009003a0036
:10759000c4debf00e14f500003003a00dc02a90046
:1075a0000040eb00c4feb7000040eb00c2feb70095
:1075b00014003700ccdebf000004e00009003200f8
:1075c000c4debf00e14f500003003a00dc02a90016
:1075d0000040eb00c4feb7000040eb00c2feb70065
:1075e00008003700c3debf000004e00005003a00d9
:1075f000c2debf00e14f50000200320010c0b300f5
:10760000c2feb700c4debf000004e00004003a0080
:107610009adebf00e14f500001003a0052f9070026
:107620000080fa00000006000000fa00dac2bf0085
:10763000614060000004e0000300320010c0b300ad
:10764000c4feb700020037000040eb00c4feb700e4
:107650000080fa00000006000200fa00b2010700f4
:107660006bfa0700c805070010020700320a07007e
:107670007c0d0700bbfd070030f68000b00c8800d1
:10768000ee0d07005702070056f007005b020700e7
:10769000070407005f02070072080700d60c070006
:1076a0007c0c0700eb0b0700590b07004c07070089
:1076b00085a0a90095a0a80021e3a8002023a80088
:1076c0001b060700410207009660a80020f9800011
:1076d0000000e0008d013a0001c7b3000040eb005c
:1076e00063090700b0f680006101b80010c0b30064
:1076f0006c090700f0f680006101b80010c0b3000b
:107700006809070030f680006101b80010c0b300be
:1077100064090700ccdebf000081fb0003002000ed
:107720000040eb005f090700a6debf000081fb0000
:10773000030020000040eb005a09070022dfbf00d1
:107740000081fb00030020000040eb00550907000a
:1077500099debf000081fb00030020000040eb0029
:1077600050090700d8debf000081fb0003002000a5
:107770000040eb004b090700e4debf000081fb0086
:10778000030020000040eb00460907001fdfbf0098
:107790000081fb00030020000040eb0041090700ce
:1077a00080f02100604090000081fb000300200079
:1077b0000040eb003b09070021dfbf000081fb0018
:1077c000030020000040eb003609070000f1210013
:1077d000604090000081fb00030020000040eb00af
:1077e00030090700e0f380006101b80010c0b30069
:1077f0002c090700f1f38000e0f3800000805000c6
:107800006101b80010c0b3002609070001f4800030
:10781000f0f38000008050006101b80010c0b30098
:107820002009070011f4800000f48000008050005f
:107830006101b80010c0b3001a09070021f48000ec
:1078400010f48000008050006101b80010c0b30047
:107850001409070030f480006101b80010c0b300c3
:107860001009070040f480006101b80010c0b300a7
:107870000c09070050f480006101b80010c0b3008b
:107880000809070060f480006101b80010c0b3006f
:107890000409070070f480006101b80010c0b30053
:1078a0000009070091debf000081fb0003002000fb
:1078b0000040eb00fb08070000f580006101b80004
:1078c00010c0b300f708070090debf000081fb0086
:1078d000030020000040eb00f208070090f4800055
:1078e0006101b80010c0b300ee080700a2f48000e8
:1078f000b3f4800020c0b300ea080700e2f480007f
:10790000f3f4800020c0b300e608070098debf0053
:107910000081fb00030020000040eb00e1080700ad
:10792000a4debf000081fb00030020000040eb004c
:10793000dc080700a2debf000081fb00030020007e
:107940000040eb00d7080700b0f380006101b800e9
:1079500010c0b300d3080700d0f380006101b80065
:1079600010c0b300cf080700c0f380006101b80069
:1079700010c0b300cb080700c0f280006101b8005e
:1079800010c0b300c7080700b0f280006101b80062
:1079900010c0b300c3080700d0f280006101b80036
:1079a00010c0b300bf08070060f780006101b80095
:1079b00010c0b300bb08070070f780006101b80079
:1079c00010c0b300b708070080f780006101b8005d
:1079d00010c0b300b3080700d0f680006101b80002
:1079e00010c0b300af08070000f780006101b800c5
:1079f00010c0b300ab08070090f680006101b8002a
:107a000010c0b300a7080700c2debf000081fb0062
:107a1000030020000040eb00a2080700c4debf0006
:107a20000081fb00030020000040eb009d080700e0
:107a3000f2debf000081fb00030020000040eb00ed
:107a400098080700e4debf000081fb00030020006f
:107a50000040eb0093080700d8debf000081fb0068
:107a6000030020000040eb008e0807001fdfbf006e
:107a70000081fb00030020000040eb0089080700a4
:107a800080f02100604090000081fb000300200096
:107a90000040eb008308070021dfbf000081fb00ee
:107aa000030020000040eb007e08070000f12100e9
:107ab000604090000081fb00030020000040eb00cc
:107ac000780807009adebf000081fb000300200059
:107ad0000040eb007308070018dfbf000081fb00c7
:107ae000030020000040eb006e080700a5debf0089
:107af0000081fb00030020000040eb006908070044
:107b0000a3debf000081fb00030020000040eb006b
:107b100064080700c3debf000081fb0003002000f3
:107b20000040eb005f080700d9debf000081fb00ca
:107b3000030020000040eb005a0807001edfbf00d2
:107b40000081fb00030020000040eb005508070007
:107b500080f02100104078000081fb00030020002d
:107b60000040eb004f08070020dfbf000081fb0052
:107b7000030020000040eb004a08070000f121004c
:107b8000104078000081fb00030020000040eb0063
:107b9000440807000040eb00004f78000900370060
:107ba0009e80fb0080ea21000080400010407800a9
:107bb0000081fb00030020000040eb0039080700b3
:107bc0001e4fe80070c1b3009e4f1000f4ff360056
:107bd00010f880006101b90010c0b300310807003f
:107be00020f880006101b80010c0b3002d08070024
:107bf00000f880006101b90010c0b3002908070037
:107c0000d0f780006101b90010c0b300250807005b
:107c1000f9debf000081fb00030020000040eb0004
:107c200020080700f8debf000081fb0003002000f1
:107c30000040eb001b080700fddebf000081fb00d9
:107c4000030020000040eb0016080700fedebf0026
:107c50000081fb00030020000040eb00110807003a
:107c600006dfbf000081fb00030020000040eb00a6
:107c70000c08070030c880006101b80010c0b300d4
:107c80000808070040c880006101b80010c0b300b8
:107c90000408070040d08000104078000081fb00fd
:107ca0000300200010c0b300fe0707000adabf007f
:107cb0000081fb00030020000040eb00f9070700f3
:107cc0000bdabf000081fb00030020000040eb0046
:107cd000f407070007dabf000081fb000300200063
:107ce0000040eb00ef0707000cdabf000081fb004b
:107cf000030020000040eb00ea0707002e08070001
:107d0000c4040700800c200020f988001205070039
:107d1000b5090700b6f60700cd080700b90507004a
:107d20002900070069fe37000000fa000000eb00a0
:107d3000203a88005174200091407800f0c8b300c8
:107d400000c0600045e7b7004567a9004107a900ea
:107d500083e0a9000080eb00601988000080fa0031
:107d6000000006000000fa0045fa0700d2ee070006
:107d70006b0207000cfc0700c7060700480c070051
:107d8000d8050700630b07009f0a07000e0a0700cb
:107d9000070b0700020007000080fa000000060041
:107da0000000fa00b19021009140780000c5b300b6
:107db00080cf500002003a000040eb0022ffb700e5
:107dc0000080fa00000006000000fa0016fe07001e
:107dd000270c07007a0707002ef707000080fa003b
:107de000000006003600f800809fbe00829fbe00a3
:107df000849fbe00869fbe000000fa0050c8b300fa
:107e00006105070000000000000000000000000005
:107e10000000000000000000e462a800f7ff370047
:107e20003600f800809fbe00829fbe00849fbe0087
:107e3000869fbe000000fa0060c8b300520507002c
:107e40000000000000000000000000000000000032
:107e500000000000e462a800f7ff37003600f800d9
:107e6000809fbe00829fbe00849fbe00869fbe0092
:107e70000000fa0070c8b30043050700e462a800e0
:107e8000ffff37003600f800809fbe00829fbe00d3
:107e9000849fbe00869fbe000000fa00b0cbb300f6
:107ea00039050700e462a800ffff37000000fa0070
:107eb0000000eb002008880005a1a80004c1a9006b
:107ec0004110200091407800f0ccb30000c0600069
:107ed00004e1b7000421a90000e224001008880092
:107ee0008460a9009460a9000000eb0000088800ed
:107ef00005e1a9000000eb00800888001061a900de
:107f000011a1a80010c1a900011120009140780022
:107f100000c3b30000c0700010e1b7001021a90039
:107f200084e0a90094e0a9000000eb00300888007c
:107f300011e1a9000000eb009008880013a1a8003f
:107f400012c1a9002111200091407800f0ccb300ab
:107f500000c060000044a00012e1b7001221a90097
:107f6000801a2600700888008500a9009500a900e5
:107f70000000eb005008880013e1a9000000eb00ae
:107f8000f00888001e61a9001fa1a8001ec1a90059
:107f9000e11120009140780000c3b30000c07000e0
:107fa0001ee1b70050e82100d00888001e21a9007a
:107fb0008760a9009760a9000000eb00a008880076
:107fc0001fe1a9000080fa00000006000000fa008e
:107fd0008460a9009460a80005e1a8000080fa0070
:107fe000000006000000fa0084e0a90094e0a80068
:107ff00011e1a8000080fa00000006000000fa006d
:108000008500a9009500a80013e1a8000080fa00ef
:10801000000006000000fa008760a9009760a80031
:108020001fe1a8000080fa0000000600809fbe004b
:108030000000fa008460a90020f980000000e00040
:108040000300320020f980000000e90020f98800d8
:1080500019dfbf00e14f500016003a00d0f8800051
:108060000000e800d0f88800d1f88000803e2000b1
:10807000808f50000f003a000000eb00d0f888001d
:108080001cdfbf000040e9001cffb7001cdfbf0081
:108090000004e00007003a00c0c3b3001cffb700b3
:1080a0000040eb0019ffb700e482a9000040eb009c
:1080b00018ffb700d8debf000004e00011003a004e
:1080c000a0f680000000e800a0f68800a1f680007d
:1080d000803e2000808f50000a003a000000eb0034
:1080e000a0f68800b0f680000000e900b0f6880035
:1080f000b0f680000000e00002003a0010c0b300bb
:10810000d8feb7000080fa004f00be000040060015
:10811000809fbe00829fbe000200fa0084e0a9009a
:108120009bdebf000004e00075003a0090debf0057
:108130000004e0000f003a00e422a900e402a900d4
:10814000ec22a900ec02a90011e1a9000040eb001b
:1081500091feb7000000eb0090f488006000b800ca
:10816000a0f48800b1f488000000eb00300888001b
:108170006300370026dfbf000080fb00000f78009f
:108180001e007800e10f5000160032001e0078003b
:10819000e10f500004003c001e0078000000e000e9
:1081a00008003200350037001e007800e20f500052
:1081b0001c0032001e007800e30f50002100320046
:1081c0002e003700e422a800e402a900ec22a90056
:1081d000ec02a80026dfbf000040e80026ffb70041
:1081e0002600370091debf00e14f500005003a0045
:1081f000e422a900e402a900ec22a800ec02a800f5
:1082000004003700e422a800e402a800ec22a90040
:10821000ec02a90026dfbf000040e80026ffb700ff
:1082200016003700e422a900e402a800ec22a8000e
:10823000ec02a90026dfbf000040e80026ffb700df
:108240000e00370091debf00e14f500005003a00fc
:10825000e422a800e402a800ec22a900ec02a90094
:1082600004003700e422a900e402a900ec22a800df
:10827000ec02a8000040eb0026ffb70000f58000ec
:108280000000e80000f5880091debf00e14f5000db
:1082900007003a00e0f48000f1f480006100400043
:1082a000e0804800e0f48800f1f488000600370020
:1082b000e0f48000f1f4800061005000e08058009c
:1082c000e0f48800f1f48800e2f48000f3f4800028
:1082d000a0f48000b1f48000800f5100818f59001c
:1082e00007003a0010c0b3009bfeb70090debf004d
:1082f0000004e00002003a000040eb009bfeb700e3
:108300000080fa004f01be004f00be000040060092
:10831000809fbe000000fa008500a900a0f7800041
:108320000000e800a0f78800f2debf00e14f500037
:1083300038003a00e4debf00e14f50001a003a0076
:10834000c2debf00e14f500009003a000000eb0020
:10835000b0f788000040eb00f2feb7000000eb0031
:10836000a0f78800e442a900e462a80042003700b8
:10837000a1f7800060f78000808f50003e00390038
:10838000b0f780000000e900b0f788000040eb0083
:10839000f2feb7000000eb00a0f78800e442a9005d
:1083a000e462a80034003700a1f7800060f7800085
:1083b000808f500030003900d9debf000004e0009b
:1083c0000a003a00c2debf00e14f500003003a004d
:1083d0000000eb00b0f7880007003700b0f780001e
:1083e0000000e900b0f7880003003700b0f7800014
:1083f0000000e900b0f788000040eb00f2feb70093
:108400000000eb00a0f78800e442a900e462a800a5
:1084100019003700a1f7800070f78000808f5000ae
:1084200015003900b0f780000000e0000c003a00b1
:1084300013e1a900e462a900d9debf00e14f5000ba
:108440000d003a00e4debf000004e0000a003a003c
:10845000dc02a9000040eb00c4feb70006003700b4
:1084600010c0b300f2feb7000000eb00a0f78800d8
:10847000e442a800e462a9000080fa004f00be00b8
:1084800000400600809fbe000200fa008760a9003d
:10849000f8debf000004e0000c003a00dcc2a900d6
:1084a000dca2a900dc82a900dc62a9001fe1a9000e
:1084b0000040eb00f9feb7000000eb00d0f78800a9
:1084c0000000eb00a00888005a00370027dfbf003b
:1084d0000080fb00000f78001e007800e10f5000c4
:1084e000160032001e007800e10f500004003c002e
:1084f0001e0078000000e000080032003500370060
:108500001e007800e20f50001c0032001e007800b0
:10851000e30f5000210032002e003700dcc2a8001b
:10852000dca2a900dc82a900dc62a80027dfbf0072
:108530000040e80027ffb70026003700f9debf0043
:10854000e14f500005003a00dcc2a900dca2a900fe
:10855000dc82a800dc62a80004003700dcc2a800ae
:10856000dca2a800dc82a900dc62a90027dfbf0032
:108570000040e80027ffb70016003700dcc2a90062
:10858000dca2a800dc82a800dc62a90027dfbf0013
:108590000040e80027ffb7000e003700f9debf00fb
:1085a000e14f500005003a00dcc2a800dca2a800a0
:1085b000dc82a900dc62a90004003700dcc2a9004b
:1085c000dca2a900dc82a800dc62a8000040eb006d
:1085d00027ffb70020f880000000e80020f888009e
:1085e000f9debf00e14f500004003a0010f88000af
:1085f0000000e80010f888000300370010f8800041
:108600000000e90010f8880011f88000d0f7800021
:10861000808f500007003a000040eb00f8feb700e2
:10862000fcdebf00e14f500002003a000040eb00ca
:10863000fcfeb7000080fa004f00be0000400600bc
:108640000000fa00d8c2a900dec2a90061e0a900ba
:108650006de0a90055e0a900d8a2a900dea2a900fa
:1086600061c0a9006dc0a90055c0a900d882a900a9
:10867000de82a90061a0a9006da0a90055a0a900f3
:10868000d862a900de62a9006680a9007280a900f4
:108690005a80a900d842a800de42a9006660a8005e
:1086a0007260a9005a60a9000080fa00000006006c
:1086b0000000fa00e2ff07000040eb00f8feb70000
:1086c0000040eb00f9feb7000000eb00d0f7880097
:1086d0000000eb0020f888000040eb00fcfeb70033
:1086e000dcc2a900dca2a900dc82a900dc62a9002e
:1086f000dac2bf00644060000004e0000300320002
:1087000000c1b30006ffb7000200370010c1b3007c
:1087100006ffb7004a0107000080fa0000000600cb
:108720000000fa00b19021009140780080c3b300ae
:1087300080cf500020003a00fedebf00e14f500025
:108740001d003200fddebf000004e0001a003a0008
:10875000fcdebf000004e00017003a000040eb0020
:10876000f8feb7001fc1bf0001c8b30001406000a0
:108770000004e000fbff3a0006dfbf00e14f5000bd
:108780000d00320020c0b300f9feb70030c0b300c6
:10879000f8feb70011f8800080442f0000804000f0
:1087a000d0f788000000eb0020f8880010c0b3006c
:1087b000fcfeb7001fe1a800b190210091407800b5
:1087c00090c3b30080cf50003f003a00fddebf00f1
:1087d000e14f50003c003a000040eb00f8feb700cb
:1087e0001fc1bf0001c8b300014060000004e000e9
:1087f000fbff3a00000021000100200070f2880019
:1088000081f288006002200090f2880010c0b3005e
:1088100054feb700210420009140780000ceb30040
:1088200000c0700042e0b70054debf0092f280004a
:108830008041780070f2800081f28000faf4070035
:1088400042c0bf007f40600042e0b70010f88000e7
:1088500030f0880010c0b30008feb70021042000eb
:108860009140780000ceb30000c0700042e0b70035
:1088700071f2800080f28000c5f5070054debf0071
:1088800092f280008041780070f2800081f28000d6
:108890003af5070054debf0092f280008041780074
:1088a00070f2800081f28000dff4070042c0bf0058
:1088b0007f40600042e0b70030f0800000f88800a0
:1088c00008debf00fefeb700b190210091407800a5
:1088d000a0c3b30080cf500053003a00fddebf00bc
:1088e000e14f500050003a000040eb000efab70094
:1088f00010c0b3003705070080d080000000e00002
:108900004900320011f8800070bb2000808f5000b9
:1089100045003c0011f8800080d0800000804000bd
:10892000d0f78800d1f7800080bb2000808f5000f6
:108930000200340080bb2000d0f788000000eb006c
:1089400020f8880010c0b300f9feb70030c0b300b3
:10895000f8feb700fedebf00e14f500031003a00e4
:10896000000021000100200070f2880081f28800e0
:108970006002200090f2880010c0b30054feb700df
:10898000210420009140780000ceb30000c07000a8
:1089900042e0b70054debf0092f2800080417800d0
:1089a00070f2800081f280009ff4070042c0bf0097
:1089b0007f40600042e0b7000040eb0008feb700d7
:1089c000210420009140780000ceb30000c0700068
:1089d00042e0b70071f2800080f280006cf5070081
:1089e00054debf0092f280008041780070f2800077
:1089f00081f28000e1f4070054debf0092f28000b3
:108a00008041780070f2800081f2800086f40700d7
:108a100042c0bf007f40600042e0b70008debf00f8
:108a2000fefeb7001fe1a800b19021009140780040
:108a3000b0c3b30080cf500056003a00fddebf0047
:108a4000e14f500053003a0006dfbf000004e00091
:108a500050003a0010f880000000e0004d003400a3
:108a60000040eb000efab70010c0b300d9040700b5
:108a700080d080000000e0004600320080d08000fe
:108a800011f88000810f5000030036000000eb0059
